:100000000C944D000C946C000C946C000C946C00DF
:100010000C946C000C946C000C946C000C946C00B0
:100020000C946C000C946C000C946C000C946C00A0
:100030000C946C000C946C000C946C000C946C0090
:100040000C946C000C946C000C946C000C946C0080
:100050000C946C000C943C010C946C000C946C009F
:100060000C946C000C946C000C946C000C946C0060
:100070000C946C000C946C000C946C000C946C0050
:100080000C946C000C946C000C946C000C946C0040
:100090000C946C000C946C00000011241FBECFEF78
:1000A000D0E2DEBFCDBF13E0A0E0B1E0EAE3FBE4C5
:1000B00000E00BBF02C007900D92A03AB107D9F73C
:1000C0001DE0A0EAB3E001C01D92AC34B107E1F736
:1000D0000E9410180C949B250C9400000E94CA01E9
:1000E0000091A10303950093A103E091E204F09134
:1000F000E304C191CDBFD191DEBF0F910FBF0F912E
:100100000BBFFF91EF91DF91CF91BF91AF919F9185
:100110008F917F916F915F914F913F912F911F919F
:100120000F91FF90EF90DF90CF90BF90AF909F9096
:100130008F907F906F905F904F903F902F901F9087
:100140000F9008950F921F922F923F924F925F92BD
:100150006F927F928F929F92AF92BF92CF92DF92D7
:10016000EF92FF920F931F932F933F934F935F93C1
:100170006F937F938F939F93AF93BF93CF93DF93AF
:10018000EF93FF930BB70F930FB70F93E091F30427
:10019000F091F404CDB7C193DEB7D1930E94CA01A8
:1001A0000091A6030093BB03E091E204F091E30405
:1001B000E093F304F093F404C191CDBFD191DEBF7D
:1001C0000F910FBF0F910BBFFF91EF91DF91CF9177
:1001D000BF91AF919F918F917F916F915F914F915F
:1001E0003F912F911F910F91FF90EF90DF90CF9053
:1001F000BF90AF909F908F907F906F905F904F9047
:100200003F902F901F900F9008950E94CA01009177
:10021000A6030093BB03E091E204F091E304E093B2
:10022000F304F093F404C191CDBFD191DEBF0F91DF
:100230000FBF0F910BBFFF91EF91DF91CF91BF9156
:10024000AF919F918F917F916F915F914F913F916E
:100250002F911F910F91FF90EF90DF90CF90BF9063
:10026000AF909F908F907F906F905F904F903F9056
:100270002F901F900F9008950F921F922F923F92F0
:100280004F925F926F927F928F929F92AF92BF92A6
:10029000CF92DF92EF92FF920F931F932F933F9392
:1002A0004F935F936F937F938F939F93AF93BF937E
:1002B000CF93DF93EF93FF930BB70F930FB70068C4
:1002C0000F930091F20403950093F204013041F47E
:1002D000CDB7DEB7E091F304F091F404C193D1936C
:1002E00002EB06BD78940E94D20200000E944402F4
:1002F0000F910FBF0F910BBFFF91EF91DF91CF9146
:10030000BF91AF919F918F917F916F915F914F912D
:100310003F912F911F910F91FF90EF90DF90CF9021
:10032000BF90AF909F908F907F906F905F904F9015
:100330003F902F901F900F900895FA018083929321
:10034000129212921292129212921292129212928D
:10035000129212921292129212921292129212927D
:10036000129212921292129212921292129212926D
:1003700062937293129212921292129212921292AB
:10038000129280E882939F0121503040C901089564
:100390000895089508950895089508950895089575
:1003A0000895EF92FF920F931F93CF93DF937C01F9
:1003B000DB01C091F304D091F4048B8D80628B8FAC
:1003C0001A8F098F7F8B6E8B18964C9318971996FE
:1003D0002C9319971596DC93CE931497F7013181DE
:1003E00022813C9311962C93119713961C921E9286
:1003F00012971796FC92EE921697832F922F0097E2
:1004000019F0FC0173836283F701B283A183EE8D3F
:10041000F0E0E951FB4F8F8D809590818923808397
:10042000882339F498A190958091E60489238093DC
:10043000E604DF91CF911F910F91FF90EF90089507
:10044000F8948091A2039091A303A091A403B0918A
:10045000A5030196A11DB11D8093A2039093A30350
:10046000A093A403B093A50378940E94CF01E8CF92
:100470008091A103813039F48091F2048F3F19F00B
:100480008F5F8093F20408958091A103813009F079
:100490004DC0F8948091F204882319F08150809324
:1004A000F2048091F204882309F03FC08091A003F8
:1004B0008823D9F5E091E604F0E0E85FFE4FE081A3
:1004C000E093F104AE2FB0E0A951BB4FAC91B0E086
:1004D000A85FBE4FEE0FEE0FEE0F8C91E80FE0938A
:1004E000A6038091BB03E81701F1F0E0EE0FFF1FB8
:1004F000E055F94F808191819093E3048093E20469
:1005000080918E0490918F04A0919004B0919104F9
:100510000196A11DB11D80938E0490938F04A0932A
:100520009004B09391040E940501789408958091FD
:10053000A103813049F4F8948091A0038F3F19F012
:100540008F5F8093A003789408958091A1038823FE
:1005500041F5E091E604F0E0E85FFE4FE081AE2F68
:10056000B0E0A951BB4FAC91B0E0A85FBE4FEE0F19
:10057000EE0FEE0F8C91E80FE093A603E093BB0320
:10058000F0E0EE0FFF1FE055F94F808191819093CD
:10059000E3048093E2049093F4048093F3040E94B4
:1005A0006E0008950E94CC01F8948091F50490911A
:1005B000F604A091F704B091F8040196A11DB11DB5
:1005C0008093F5049093F604A093F704B093F80495
:1005D00078948091A103813061F5E091BC03F091A2
:1005E000BD034091E60421E030E01EC0F894818D07
:1005F000928D0097A9F00197928F818F009781F4D7
:10060000838D83FD0BC080A1482BA68DB0E0A9513E
:10061000BB4F8C91978D892B8C9302C0328F218F89
:100620000684F785E02D7894848D8F33F9F6409316
:10063000E60408958CEF90E008950895FF920F93DB
:100640001F93CF93DF93FC010181A02FB0E0A85F3F
:10065000BE4F8C91282F30E0D901A050BF4F1C9184
:10066000EF01C20FD31FFE80AF2DB0E0A85FBE4FD9
:100670009C91A92FB0E0A050BF4F5C91880F880FCC
:10068000880F890F952F90959F219E83992321F4A0
:10069000912F909590239183E82FF0E0EE0FFF1FAC
:1006A000E055F94F0190F081E02D128E118E138AE2
:1006B000128A758B648B4095938D4923438F442315
:1006C00059F49091E604912B9093E604F901E951D5
:1006D000FB4F9081952B9083DF91CF911F910F91CC
:1006E000FF900895CF93DF93DC01E091F304F09144
:1006F000F404938B828B868D682F70E0378DCB014D
:1007000089519B4F232F2095EC0148812423288376
:10071000222339F490A190958091E6048923809357
:10072000E604EB01CA0FDB1F8E81832B8E831196AB
:100730008C91119790A1892B11968C931197DF9131
:10074000CF910895CF93DF93DC01E091F304F09112
:10075000F404868DED01C80FD11D878D80959E8193
:1007600089238E83882349F490A1909511968C91CA
:100770001197892311968C931197138E138A128ADD
:10078000DF91CF910895FC011182168217821086A5
:10079000118612861386148615860895F894809122
:1007A000F2048823E9F58091A0038823C9F5E0913C
:1007B000E604F0E0E85FFE4FE081AE2FB0E0A95123
:1007C000BB4FAC91B0E0A85FBE4FEE0FEE0FEE0F47
:1007D0008C91E80FE093A6038091BB03E81701F129
:1007E000F0E0EE0FFF1FE055F94F8081918190936B
:1007F000E3048093E20480918E0490918F04A09191
:100800009004B09191040196A11DB11D80938E04B6
:1008100090938F04A0939004B09391040E94A2003F
:10082000789408958091A1038130A9F4F89480917F
:10083000A003882379F081508093A003882341F49A
:100840008091F204882321F478940E94CE030895C5
:1008500078940895789408959F92AF92BF92CF9222
:10086000DF92EF92FF920F931F93CF93DF93982E17
:10087000F894C0919604D0919704209709F462C02F
:100880008E859F85909397048093960478947983BE
:1008900068839C8E1B8E1A8E198EDB82CA82EE8232
:1008A000FF82088719875D834C83BB86AA863D87B4
:1008B0002C8719A2E92DE695E695E695EE8FF0E0F6
:1008C000E050FF4F808188A3E92DE770ED8FF0E0C5
:1008D000E050FF4F80818F8F1B8A1A8A1F8A1E8AE1
:1008E0001D8A1C8ACE010E94D001CE010E94C8013F
:1008F000F894E92DF0E0EE0FFF1FE055F94FD1839A
:10090000C083E091BC03F091BD03FF87EE87198A95
:10091000188A309711F0D18BC08BD093BD03C09350
:10092000BC038091E60498A1892B8093E604EE8DA8
:10093000F0E0E951FB4F80819F8D892B8083789473
:1009400080E002C0789486E4DF91CF911F910F91EF
:10095000FF90EF90DF90CF90BF90AF909F90089561
:10096000FC01D90147FF03C04F7781E001C080E05F
:100970001C92F8944130B1F1413020F1423021F025
:10098000433009F03EC010C09381262F292326173B
:1009900031F4813031F460956923638302C088E9C2
:1009A0008C938381789408959381692331F0813009
:1009B00031F460956923638302C088E98C93838155
:1009C000789408952381922F90959623961729F471
:1009D000813029F4622B638302C088E98C93838180
:1009E000789408952381922F9095962329F0813051
:1009F00029F4922B938302C088E98C9383817894A5
:100A00000895789487E98C9380E00895DB019091B4
:100A1000F204992329F08DE88C93E0E0F0E018C00F
:100A2000F894E091AD06F091AE06309771F0218117
:100A300032813093AE062093AD0695E09083838398
:100A40001282118278941C9203C078948AE98C9364
:100A5000CF010895F894FC0183817894FB01108202
:100A6000089587EA93E01092A7039C012C5F3F4F03
:100A70003093A9032093A8031092AB039C01285F35
:100A80003F4F3093AD032093AC031092AF039C0112
:100A9000245F3F4F3093B1032093B0031092B30310
:100AA0009C01205F3F4F3093B5032093B403109215
:100AB000B9031092B8039093AE068093AD060895E3
:100AC000CF93DF93DC011296CD91DC911397ED91DA
:100AD000FC911197209759F41696CD91DC911797B8
:100AE000FA83E983309749F01382128206C0F983B2
:100AF000E883309711F0D383C2831496ED91FC9173
:100B00001597178A168ADF91CF9108951F93DC01FC
:100B10001496ED91FC911597128E118E608F238D96
:100B20002F7D238F222381F42091E60430A1232BF3
:100B30002093E604A68DB0E0A951BB4F2C91378DD0
:100B4000232B2C9311E001C010E00E946005812F3F
:100B50001F910895CF92DF92EF92FF920F931F9310
:100B6000DF93CF930F92CDB7DEB76C017901F89484
:100B7000442319F0413079F405C06095FC0183816C
:100B8000862303C0FC018381862B8383F6010181C8
:100B9000128119824DC0789489E9F901808380E03F
:100BA00057C0F8018185813049F18130C8F0823029
:100BB00019F08330C1F508C0F8018085F601638122
:100BC0006823681781F521C0F8016085F6018381EB
:100BD000682349F1C8010E948605813021F51BC0B8
:100BE000F8018085F6016381609568236817D9F460
:100BF000C8010E9486058130B1F410C0F6016381FE
:100C00006095F8018085682371F0C8010E9486050F
:100C1000813049F406C081E0898305C0E1E0E983C1
:100C200002C0F1E0F983F80190818181092F182F2A
:100C30000115110509F0B5CF7894F981F13011F45F
:100C40000E94CE03F894F60183817894F701108214
:100C50000F90CF91DF911F910F91FF90EF90DF9058
:100C6000CF900895CF92DF92EF92FF920F931F9350
:100C7000DF93CF930F92CDB7DEB76C017A018091ED
:100C8000F204882311F08CE847C0F894F601018142
:100C9000128121E00115110509F420E0662319F005
:100CA0006130C1F51EC0222371F4F60110828091DB
:100CB000AD069091AE0692838183D092AE06C0922B
:100CC000AD06789422C0789488E026C0C80160E020
:100CD00029830E948605F80190818181092F182FB0
:100CE00029810115110591F7F60110828091AD0659
:100CF0009091AE0692838183D092AE06C092AD06EB
:100D00007894213011F40E94CE03F7011082CC2494
:100D1000DD2404C0789487E0F7018083C6010F903A
:100D2000CF91DF911F910F91FF90EF90DF90CF90C7
:100D30000895BF92CF92DF92EF92FF920F931F938D
:100D4000DF93CF93CDB7DEB72B970FB6F894DEBF06
:100D50000FBECDBF7C01562FB42EF90168018091E2
:100D6000F204882311F082E098C047FF05C0BFE776
:100D7000BB2221E02B8701C01B86F8948B2D81308C
:100D800009F46AC0813008F447C0823021F0833012
:100D900009F081C020C0D70113968C911397952F2D
:100DA0009823951769F4BB85B13021F450955823E9
:100DB000F7015383D70113968C91139778941EC033
:100DC000C701BE016F5F7F4F452F22E08F010E9458
:100DD000D101789465C0D70113969C911397852F04
:100DE000892379F0BB85B13021F480958923F701FF
:100DF0008383D70113968C9113977894F601108210
:100E000085C0C701BE016F5F7F4F452F23E08F0173
:100E10000E94D101789444C0D70113969C911397F6
:100E2000892F80958523851761F4BB85B13019F42E
:100E3000592BF7015383D70113968C91139778940C
:100E4000DDCFC701BE016F5F7F4F452F20E08F01CF
:100E50000E94D101789424C0D70113969C911397D6
:100E6000892F8095852361F0BB85B13019F4892BDA
:100E7000F7018383D70113968C9113977894BECF93
:100E8000C701BE016F5F7F4F452F21E08F010E9498
:100E9000D101789405C0789487E9D6018C9317C066
:100EA0000E94CE03F894E091F304F091F404838D52
:100EB00085FF0FC0CE0101960E946005E091F3040A
:100EC000F091F404138E78948AE0F601808380E038
:100ED0001DC02B852130A9F48B2D823050F0843039
:100EE00080F4908D9095D70113968C911397892358
:100EF00006C0D70113968C911397908D892B13966A
:100F00008C93F70183817894D6011C922B960FB6AF
:100F1000F894DEBF0FBECDBFCF91DF911F910F912F
:100F2000FF90EF90DF90CF90BF900895FC01F89470
:100F30008481958115821482789408952091F20419
:100F4000222301F5F894E091EF04F091F00430973A
:100F500031F0248135813093F0042093EF047894AC
:100F6000309791F021E0208313821282958384834D
:100F700011821682178210861186128613861486B5
:100F8000158602C0E0E0F0E0CF010895CF92DF9235
:100F9000EF92FF920F931F93DF93CF930F92CDB7F2
:100FA000DEB76C018A018091F204882311F08CE88D
:100FB00042C0F89421E0F6018181882309F420E001
:100FC000662319F06130A9F51BC0222371F4F601E4
:100FD00010828091EF049091F00495838483D092E5
:100FE000F004C092EF0478941FC0789488E023C086
:100FF000C60160E070E042E029830E941E0329815F
:10100000F60181818823A1F710828091EF049091ED
:10101000F00495838483D092F004C092EF04789416
:10102000213011F40E94CE03F8011082CC24DD247B
:1010300004C0789487E0F8018083C6010F90CF91B7
:10104000DF911F910F91FF90EF90DF90CF90089567
:10105000EF92FF920F931F93CF93DF93EC017A01EE
:101060008091F204882331F082E0FA01808300E06D
:1010700010E033C0F8940C811D810115110521F099
:101080001D821C8278941FC0E091F304F091F40457
:10109000838D8260838F728F618FCE010E94720375
:1010A00078940E94CE03F894E091F304F091F40454
:1010B000048915890115110549F0158A148A138EC2
:1010C000138A128A7894F701108207C0CE010E9419
:1010D000A20378948AE0F7018083C801DF91CF9161
:1010E0001F910F91FF90EF900895F894FC012181DA
:1010F000222341F042E00E941E0378940E94CE0316
:1011000080E00895FC01248135812115310519F015
:10111000789484E10895FC0175836483789480E079
:1011200008950F931F93CF93DF93EC018B01F894F5
:1011300089818823A1F040FD06C009C0CE01B80115
:1011400042E00E941E0389818823C1F704C0CE01BA
:1011500042E00E941E0378940E94CE030AC08C8154
:101160009D81009719F0789484E104C07D836C839D
:10117000789480E0DF91CF911F910F910895FC0149
:10118000DB01F89481811A968C931A9786811296C6
:101190008C931297878113968C931397808514965E
:1011A0008C931497818515968C9315978285169646
:1011B0008C931697838517968C931797848518962A
:1011C0008C931897858519968C93199784819581AE
:1011D00011969C938E93789480E008954F925F923D
:1011E0006F927F928F929F92AF92BF92CF92DF9237
:1011F000EF92FF920F931F93CF93DF93EC0148017F
:1012000059016701F894E0919A04F0919B0430979A
:1012100031F08281938190939B0480939A04789417
:10122000309721F48EE6D6018C9332C0DE01740132
:10123000CE01880D991D00E010E098012A013B01C4
:101240000894410851086108710809C08D939C9366
:10125000DC018E0D9F1D0F5F1F4F2F4F3F4F041559
:1012600015052605370590F31D921C92D183C08386
:10127000D383C283448755876687778740875187A2
:101280006287738784829582A682B782D6011C9278
:10129000CF01DF91CF911F910F91FF90EF90DF90E1
:1012A000CF90BF90AF909F908F907F906F905F9006
:1012B0004F900895CF93DF93DC01EB01F8941C96D7
:1012C0002D913D914D915C911F972115310541055F
:1012D0005105B9F01296ED91FC911397808191819F
:1012E00013969C938E93129721503040404050406B
:1012F0001C962D933D934D935C931F977894188281
:1013000005C0789481E78883E0E0F0E0CF01DF91C9
:10131000CF910895FC01F89424853585468557853D
:1013200080859185A285B385281739074A075B0711
:1013300018F0789482E7089582819381DB011196F9
:101340009C938E93738362832F5F3F4F4F4F5F4F0A
:101350002487358746875787789480E00895DC0195
:10136000FB01F8948D919C91119791838083129643
:101370008D919C9113979383828314962D913D9127
:101380004D915C9117972483358346835783189634
:101390002D913D914D915C911B972087318742871C
:1013A00053871C968D919D910D90BC91A02D8487A3
:1013B0009587A687B7877894281B390B4A0B5B0B58
:1013C000208B318B428B538B80E00895EEEBF3E062
:1013D000CF014096938382831182108214861586F2
:1013E0001686178610861186128613861482158239
:1013F00016821782FC0183E0EE3FF80749F710924E
:101400000104109200041092FF031092FE03109248
:101410000A0410920B0410920C0410920D04109206
:101420000604109207041092080410920904109206
:1014300002041092030410920404109205048EEB2F
:1014400093E090939B0480939A040895CF93DF9345
:10145000FC01DB018091F204882319F082E08C9377
:101460001AC0F894228133812F3F99F4207033837E
:101470002283C091F304D091F4048C8D90E0822BF0
:10148000932B93838283D583C48378941C9281E0C9
:1014900003C078941C9280E0DF91CF910895CF93A0
:1014A000DF93EB019091F204992311F08DE80FC0C6
:1014B000F89490E0DC01AA0FBB1FA055B94F2D9105
:1014C0003C9111972115310531F0789488E2888399
:1014D000E0E0F0E02CC021E030E011963C932E9348
:1014E000E091EF04F091F004309739F411961C92DA
:1014F0001E92789484E088831AC0248135813093C9
:10150000F0042093EF04789424E02083982F882718
:101510008F6F9383828315821482118216821782C1
:101520001086118612861386148615861882CF01BE
:10153000DF91CF910895CF92DF92EF92FF920F93B8
:101540001F93DF93CF930F92CDB7DEB76C018A0163
:101550008091F204882311F08CE85AC0F89421E0BD
:10156000F6018181882309F420E0662321F06130AF
:1015700009F04CC027C02223D1F4D6011396EC9178
:101580001397F0E0EE0FFF1FE055F94F1182108224
:101590001C928091EF049091F00415969C938E9389
:1015A0001497D092F004C092EF0478942AC07894F3
:1015B00088E02EC0C60160E070E040E129830E940F
:1015C0001E032981F60181818823A1F7E381F0E0E0
:1015D000EE0FFF1FE055F94F11821082D6011C92C9
:1015E0008091EF049091F00415969C938E9314973C
:1015F000D092F004C092EF047894213011F40E944C
:10160000CE03F8011082CC24DD2404C0789487E056
:10161000D8018C93C6010F90CF91DF911F910F914C
:10162000FF90EF90DF90CF9008950F931F93CF938B
:10163000DF93EC018A018091F204882311F082E0AB
:1016400086C0F8948A819B81382F8F3F89F48070FF
:101650009B838A83E091F304F091F404248D30E0BD
:10166000282B392B3B832A83FD83EC83789475C028
:10167000292FEC81FD81848D891709F44CC0A0913C
:10168000F304B091F4045C968C915C97831708F096
:1016900042C0A68DB0E0A951BB4F9C91878D392FD8
:1016A000382369F0809589238C93882351F490A185
:1016B00090958091E60489238093E60402C030E08F
:1016C00001C031E0248F822F869586958695868F7E
:1016D00090E0DC01A050BF4F5C9150A3A22FA770F7
:1016E000A58FB0E0A050BF4F4C91478F313059F4D7
:1016F0003091E604352B3093E604DC01A951BB4F51
:101700008C91842B8C93A22FB0E0AA0FBB1FA05505
:10171000B94FED93FC93E091F304F091F404838DC1
:101720008061838F728F618FCE010E9472037894E3
:101730000E94CE03F894E091F304F091F404838DB9
:1017400084FF08C0CE010E94A20378948AE0F801C9
:10175000808305C0138A128A7894F8011082DF9181
:10176000CF911F910F910895CF93DF93EC0180915A
:10177000F204882309F07BC0F8942A814B81E09120
:10178000F304F091F404848D841729F08217E9F1B1
:10179000789488E76DC0A68DB0E0A951BB4F878DC6
:1017A00080959C9189238C93882339F490A19095FE
:1017B0008091E60489238093E604248F822F869506
:1017C00086958695868F90E0DC01A050BF4F6C9186
:1017D00060A3A22FA770A58FB0E0A050BF4F5C916F
:1017E000578F3091E604362B3093E604DC01A95183
:1017F000BB4F8C91852B8C93A22FB0E0AA0FBB1FFF
:10180000A055B94F1196FC93EE93E42FF0E0EE0F44
:10181000FF1FE055F94F81E090E09183808389813B
:101820008823D9F0CE0160E070E040E10E941E0301
:1018300090E02A813B812070282B392B3B832A831F
:10184000FC01EE0FFF1FE055F94F808191819D83D0
:101850008C8378940E94CE0308C08A819B818F6F0D
:101860009B838A831D821C82789480E001C085E07E
:10187000DF91CF910895FC01DB018091F204882370
:10188000C1F5F89483811B968C931B9782811A96DD
:101890008C931A978F3F29F481E019968C931997AE
:1018A00003C019961C921997818118968C931897EA
:1018B00086818C93878111968C93119780851296DF
:1018C0008C931297818513968C9313978285149627
:1018D0008C931497838515968C931597848516960B
:1018E0008C931697858517968C931797789480E03C
:1018F000089586E00895F894DC011496ED91FC912A
:10190000159784859585009799F0A085B1852D91CF
:101910003D91B187A08701979587848784819581C0
:10192000A817B90739F4828193819187808702C013
:1019300020E030E07894C90108952091F204222338
:1019400009F058C0F894E091EF04F091F00430975A
:1019500031F0248135813093F0042093EF047894A2
:10196000309709F449C0F894A091E404B091E504DB
:101970001097A9F12D913C9111973093E504209394
:10198000E404789413969C938E9312979B01220FF4
:10199000331F280F391F15963C932E9314971796D3
:1019A0009C938E93169719969C938E9318971B96DB
:1019B0007C936E931A971D961C921E921C9782E040
:1019C000808313821282B583A483118216821782C8
:1019D0001086118612861386148615860DC0809196
:1019E000EF049091F00495838483F093F004E093E6
:1019F000EF047894E0E0F0E0CF010895CF92DF9219
:101A0000EF92FF920F931F93DF93CF930F92CDB777
:101A1000DEB76C018A018091F204882321F08CE802
:101A2000DA018C932EC0F89421E0F601818188239D
:101A300009F420E0662321F0613009F055C02FC081
:101A4000222311F5D6011496ED91FC911597809102
:101A5000E4049091E50491838083F093E504E0939E
:101A6000E4041C928091EF049091F00415969C93ED
:101A70008E931497D092F004C092EF047894F801FA
:101A80001082CC24DD2434C0789488E02FC0C601B5
:101A900060E070E044E029830E941E032981F60182
:101AA00081818823A1F70480F581E02D8091E404F1
:101AB0009091E50491838083F093E504E093E4043E
:101AC000D6011C928091EF049091F00415969C939E
:101AD0008E931497D092F004C092EF047894213042
:101AE00071F60E94CE03CBCF789487E0D8018C9317
:101AF000C6010F90CF91DF911F910F91FF90EF9052
:101B0000DF90CF900895F894DC011496ED91FC914C
:101B10001597828193819783868391878087158625
:101B20001486789480E00895EF92FF920F931F93AC
:101B3000CF93DF93EC017A018091F204882331F096
:101B400082E0FA01808300E010E044C0F894EC8168
:101B5000FD81848595850097A1F0A085B1850D91C3
:101B60001D91B187A087019795878487848195818E
:101B7000A817B90721F4828193819187808778948F
:101B80001FC0E091F304F091F404838D8460838F8F
:101B9000728F618FCE010E94720378940E94CE03EF
:101BA000F894E091F304F091F40404891589011587
:101BB000110549F0158A148A138E138A128A7894B3
:101BC000F701108207C0CE010E94A20378948AE038
:101BD000F7018083C801DF91CF911F910F91FF9092
:101BE000EF900895F894DC0111962C91119722231F
:101BF00041F044E00E941E0378940E94CE0380E0EE
:101C00000895DC011496ED91FC91159784859585D6
:101C1000228533858217930718F078948EE1089512
:101C2000A681B7816D937D93B783A683019695872F
:101C3000848784819581A817B90721F482819381D3
:101C400097838683789480E00895F894DC01119658
:101C50002C911197222341F044E00E941E037894B6
:101C60000E94CE0380E00895DC011496ED91FC9172
:101C7000159784859585228533858217930718F0FB
:101C800078948EE1089540855185228133814217F1
:101C9000530721F42481358131872087A085B185C0
:101CA0001297B187A08711967C936E9301969587C2
:101CB0008487789480E008950F931F93CF93DF93E8
:101CC000EC018B01F89489818823A1F040FD06C0C6
:101CD00009C0CE01B80144E00E941E038981882317
:101CE000C1F704C0CE0144E00E941E0378940E9414
:101CF000CE0335C0EC81FD818485958522853385B1
:101D00008217930718F078948EE12AC041FF14C01F
:101D100040855185228133814217530721F4248164
:101D2000358131872087A085B1851297B187A0873B
:101D300011961C930E930FC0A681B7816D937D936E
:101D4000B783A68324813581A217B30721F42281AA
:101D5000338137832683019695878487789480E042
:101D6000DF91CF911F910F910895CF93DF93FC01E5
:101D7000DB01F89481811E968C931E9786811696BE
:101D80008C931697878117968C9317978085189652
:101D90008C931897818519968C93199782851A963A
:101DA0008C931A9783851B968C931B9784851C961E
:101DB0008C931C9785851D968C931D970480F581C7
:101DC000E02D84859585009741F0C085D1852881D7
:101DD000398111963C932E9303C011961C921E924A
:101DE00013969C938E9312978285938515969C9358
:101DF0008E931497789480E0DF91CF9108958CE9C9
:101E000094E09C01225F3F4F30939D0420939C04FB
:101E10009C01245E3F4F3093AB042093AA049C01A5
:101E2000265D3F4F3093B9042093B8049C01285C91
:101E30003F4F3093C7042093C6041092D5041092EC
:101E4000D4049093E5048093E4040895FC01F8948D
:101E5000228133812115310521F0C9010197938336
:101E600082837894C90108952091F204222301F518
:101E7000F894E091EF04F091F004309731F0248170
:101E800035813093F0042093EF047894309791F0EB
:101E900023E0208393838283158214821182168229
:101EA000178210861186128613861486158602C044
:101EB000E0E0F0E0CF010895CF92DF92EF92FF9241
:101EC0000F931F93DF93CF930F92CDB7DEB76C01C3
:101ED0008A018091F204882311F08CE842C0F894C2
:101EE00021E0F6018181882309F420E0662319F0BE
:101EF0006130A9F51BC0222371F4F6011082809194
:101F0000EF049091F00495838483D092F004C09202
:101F1000EF0478941FC0789488E023C0C60160E085
:101F200070E041E029830E941E032981F60181812E
:101F30008823A1F710828091EF049091F00495839B
:101F40008483D092F004C092EF047894213011F48D
:101F50000E94CE03F8011082CC24DD2404C07894C2
:101F600087E0F8018083C6010F90CF91DF911F9128
:101F70000F91FF90EF90DF90CF9008950F931F93F4
:101F8000CF93DF93EC018A018091F204882311F052
:101F900082E026C0F8948A819B81009729F00197FE
:101FA0009B838A83789422C0E091F304F091F40437
:101FB000838D8160838F728F618FCE010E94720347
:101FC00078940E94CE03F894E091F304F091F40425
:101FD000838D80FF08C0CE010E94A20378948AE01E
:101FE000F801808305C0138A128A7894F801108260
:101FF000DF91CF911F910F910895F894FC012181F9
:10200000222349F060E070E041E00E941E037894D2
:102010000E94CE030DC0FC0122813381FFEF2F3FD0
:102020003F0741F02F5F3F4FFC01338322837894B9
:1020300080E00895789482E30895FC01DB01F89430
:1020400081811A968C931A97868112968C93129797
:10205000878113968C931397808514968C9314978D
:10206000818515968C931597828516968C93169775
:10207000838517968C931797848518968C93189759
:10208000858519968C9319978281938111969C93DB
:102090008E93789480E00895EF92FF920F931F93B0
:1020A000CF93DF93F894262F30E0F901EE0FFF1F56
:1020B000E055F94F408151814115510519F078944F
:1020C00088E28CC041E050E0518340837894162F21
:1020D000169516951695412F50E0FA01E050FF4FE6
:1020E0009081762F7770E72FF0E0E050FF4F00816E
:1020F000F8948F3F29F4E091F304F091F404848D77
:10210000C82FD0E0CC0FDD1FC055D94FE881F98131
:10211000309709F45AC019821882868DC82FD0E0F2
:10212000DE01A951BB4FFC90878DEF2CE822C1F056
:1021300080958F218C93882339F4A0A1A09580915C
:10214000E6048A238093E6048091E604892B809339
:10215000E604DA01A951BB4F8C91802B8C9324C0EB
:10216000A289B389109701F1CA0FDB1F8095FE8009
:102170008F218E83882349F4F0A0F09411968C91DE
:1021800011978F2111968C93119711968C9111971D
:10219000892B11968C931197A40FB51F16968C91CD
:1021A0001697802B16968C93D901AA0FBB1FA055AA
:1021B000B94FED93FC93648F168F758F90A3078FA3
:1021C00078940E94CE0380E009C0F901EE0FFF1F52
:1021D000E055F94F11821082789489E2DF91CF9116
:1021E0001F910F91FF90EF9008958F929F92AF9261
:1021F000BF92CF92DF92EF92FF920F931F93DF93E4
:10220000CF930F92CDB7DEB7122FF894822E992478
:10221000880C991C20EB36E0820E931EF40120817D
:1022200031812115310581F521E030E031832083B2
:10223000789420E030E00E949D01BC01812F40E0B5
:1022400050E020E030E0EE24FF248701CC24DD24A0
:10225000AA24BB240E942C04882381F4F894909132
:1022600099049F5F9093990478949091A103913081
:1022700069F489830E94CE03898108C0F894F4012F
:1022800011821082789402C0789488E20F90CF91E6
:10229000DF911F910F91FF90EF90DF90CF90BF9053
:1022A000AF909F908F9008952F923F925F926F9280
:1022B0007F928F929F92AF92BF92CF92DF92EF92D6
:1022C000FF920F931F93DF93CF93CDB7DEB727977E
:1022D0000FB6F894DEBF0FBECDBF9A8389837C838F
:1022E0006B835E834D83522E180187017501AB8C81
:1022F000BC8CF894622E7724F301EE0FFF1FE0559B
:10230000F94F80819181009709F03DC081E090E014
:10231000918380837894C50183709070009731F029
:10232000C80160E070E0A7010E94A22289819A8121
:102330006B817C814D815E8195010E949D01BC0174
:10234000852DA8019101860164010E942C04882337
:1023500081F4F894909199049F5F909399047894F4
:102360009091A103913089F48F830E94CE038F81D5
:102370000CC0F894F301EE0FFF1FE055F94F1182E6
:102380001082789402C0789488E227960FB6F89469
:10239000DEBF0FBECDBFCF91DF911F910F91FF9098
:1023A000EF90DF90CF90BF90AF909F908F907F90F5
:1023B0006F905F903F902F9008958F929F92AF9271
:1023C000BF92CF92DF92EF92FF920F931F93CF9322
:1023D000DF930E94CD011092F5041092F604109242
:1023E000F7041092F8041092F2041092A0031092D5
:1023F00099041092A10310928E0410928F041092EF
:102400009004109291041092A2031092A3031092D0
:10241000A4031092A5031092300710923107109276
:102420003207109233071092920410929304109284
:102430009404109295041092AF061092E604109244
:10244000E7041092E8041092E9041092EA04109252
:10245000EB041092EC041092ED041092EE04109232
:10246000BB031092A6031092E3041092E2041092B0
:10247000F4041092F3041092BD031092BC03E0EB3D
:10248000F6E01192119287E0E033F807D1F781EE80
:1024900095E09093CE058093CD059C012E5D3F4F36
:1024A0003093F0052093EF0525E236E030931206D5
:1024B0002093110627E436E0309334062093330648
:1024C00029E636E030935606209355062BE836E091
:1024D000309378062093770610929A061092990608
:1024E0008297909397048093960489E795E01092E1
:1024F00079059C01225F3F4F30937E0520937D0537
:10250000109287059C01245E3F4F30938C052093E9
:102510008B05109295059C01265D3F4F30939A05DF
:10252000209399051092A3059C01285C3F4F30939E
:10253000A8052093A7051092B1051092B605109238
:10254000B5059093F0048093EF040E9431050E943A
:10255000E6090E94FF0E00D0C3E0D0E0EDB7FEB761
:10256000D283C18380E292E060E070E048E755E00A
:102570002FE30FEF1FEFF9EFEF2EF4E0FF2EE0E86F
:10258000AE2EB12CC12CD12C882499240E94541138
:10259000EDB7FEB7D283C1838DEA94E160E070E0CD
:1025A0004DE854E02EE30EEF1FEF3EE0E32E34E063
:1025B000F32E0E9454110F900F900E94CE01DF91D4
:1025C000CF911F910F91FF90EF90DF90CF90BF9030
:1025D000AF909F908F9008950F931F93CF93DF93A9
:1025E0009091F204992309F08CC0F8948F3F29F45C
:1025F000E091F304F091F404848D082F10E0F801C9
:10260000EE0FFF1FE055F94FC081D181209709F4EB
:1026100075C0AE8DB0E09F8D9095FD01E951FB4FE7
:10262000808189238083882339F428A12095809193
:10263000E60482238093E604EA89FB89309781F0DF
:10264000AE0FBF1F16968C911697892316968C9302
:102650001697882329F498A19095818189238183F5
:102660008E899F89009711F00E9460051A8E198E3D
:102670001B8E8091A0038F3F19F08F5F8093A00382
:102680007894F8948091A003882319F08150809366
:10269000A003CE010E94C9018091990481508093CA
:1026A0009904F801EE0FFF1FE055F94F11821082D7
:1026B000E889F989AE85BF85309749F451961C9217
:1026C0001E925097B093BD03A093BC0308C0B78778
:1026D000A687AE85BF855196FC93EE935097809167
:1026E0009604909197049F878E87D0939704C09308
:1026F000960478940E94CE0380E004C078948CE322
:1027000001C08FE3DF91CF911F910F9108958F3F0B
:1027100041F4F894E091F304F091F40481A17894E9
:102720000895F894E82FF0E0EE0FFF1FE055F94F01
:102730000190F081E02D309721F08EE381A380E0BD
:1027400001C08BE078940895F894E82FF0E0EE0F44
:10275000FF1FE055F94F0190F081E02D309719F4FB
:10276000789484E60895838D83FF1DC0877F838FCF
:102770008823B1F4818D928D009791F48091E604C5
:1027800090A1892B8093E604A68DB0E0A951BB4FA0
:102790008C91978D892B8C9378940E94CE0301C0E5
:1027A000789480E00895789485E60895EF92FF92FA
:1027B0000F931F93CF93DF93FB011082118212823C
:1027C00013821482158216821782F8948F3F31F497
:1027D000A091F304B091F4045C968C91A82FB0E022
:1027E000AA0FBB1FA055B94F0D90BC91A02D1097FB
:1027F00019F478948BE02CC01A968C911A9780FD6E
:1028000003C0789482E824C016962D913D914D9195
:102810005C9119971496CD91DC911597789480E08E
:1028200090E0DC0103C00196A11DB11D69916623F2
:10283000D1F380839183A283B38379018A01E81A5B
:10284000F90A0A0B1B0BE482F5820683178380E0EA
:10285000DF91CF911F910F91FF90EF900895F89421
:10286000A091F304B091F4048F3F21F45C968C9115
:102870005C9705C05C969C915C97891711F491E078
:1028800001C090E0E82FF0E0EE0FFF1FE055F94F98
:102890000190F081E02D309719F478948AE508953D
:1028A000A68DB0E0A951BB4F878D80952C918223D6
:1028B0008C93882339F420A120958091E60482230B
:1028C0008093E604838D8860838F7894913021F41F
:1028D0000E94CE0380E0089580E00895F8948F3F31
:1028E00029F4E091F304F091F404848DE82FF0E0F2
:1028F000EE0FFF1FE055F94F0190F081E02D30976A
:1029000019F4789489E20895862F972FDC0182E2EA
:1029100001900D928150E1F7789408950097E1F0CD
:10292000F894E091F304F091F404A68DB0E0A9517D
:10293000BB4F278D20953C9123232C93222339F4E0
:1029400030A130952091E60423232093E604928F52
:10295000818F78940E94CE0308958F929F92AF92B8
:10296000BF92DF92EF92FF920F931F9304C088EC07
:1029700090E00E948E148091AF068823C1F360918D
:10298000920470919304809194049091950424E6AC
:1029900030E040E050E00E94492279018A0164E67B
:1029A000862E912CA12CB12C54E6D52EF894809132
:1029B000A2039091A303A091A403B091A5038093D7
:1029C000300790933107A0933207B093330760919B
:1029D000A2037091A3038091A4039091A503109288
:1029E000A2031092A3031092A4031092A50378945B
:1029F000E114F1040105110571F0A80197010E948D
:102A000049228D2D821B87FD03C08093980413C03B
:102A10001092980410C010929804609192047091E2
:102A200093048091940490919504A50194010E94CF
:102A3000492279018A010E94CB0184E690E00E943C
:102A40008E14B4CF82E090E00E948E14F89410921D
:102A5000A2031092A3031092A4031092A5037894EA
:102A600084E690E00E948E14F8948091A2039091E5
:102A7000A303A091A403B091A50380939204909323
:102A80009304A0939404B093950481E08093AF06DF
:102A9000789408958F929F92AF92BF92CF92DF92D7
:102AA000EF92FF920F931F93C82E162FD42E8823D8
:102AB00049F4662339F4442341F42115310549F4DE
:102AC00084E568C01C3308F060C08D2D8C3308F09D
:102AD0005EC083E0283E380708F05BC0B90180E0A3
:102AE00090E024E630E040E050E00E9403226C5089
:102AF0007E4F8F4F9F4F28EE33E040E050E00E9422
:102B0000492249015A01612F70E080E090E02CE3F6
:102B100030E040E050E00E9403227B018C01ED0C8C
:102B2000F11C011D111D6C2D70E080E090E020E192
:102B30003EE040E050E00E940322E60EF71E081F30
:102B4000191FC801B70124E630E040E050E00E94C0
:102B50000322860E971EA81EB91E7501D501C40159
:102B6000A070B0700E948E140BC080E090E80E94AC
:102B70008E1480E090E80E948E140894E108F10819
:102B8000E114F10491F780E005C081E503C082E51E
:102B900001C083E51F910F91FF90EF90DF90CF90E0
:102BA000BF90AF909F908F9008958F3380F5F894E9
:102BB000E82FF0E0EE0FFF1FE055F94F0190F08194
:102BC000E02D309709F1818D928D0097D1F0128E12
:102BD000118E838D83FD12C08091E60490A1892B14
:102BE0008093E604A68DB0E0A951BB4F8C91978DE0
:102BF000892B8C9378940E94CE0301C0789480E056
:102C00000895789480E5089578948BE008958AE299
:102C10000895F8942091F5043091F6044091F7045A
:102C20005091F8047894B901CA010895F89460931A
:102C3000F5047093F6048093F7049093F804789465
:102C400008951F9380E090E00E949E0790933509BD
:102C50008093340988EC96E160E070E043E359E04A
:102C600024E10E94F51087EA97E160E070E045E317
:102C70005BE02EE10E94F51010E180E060E040E0B2
:102C800022E330E00E944A1595B1912795B9882337
:102C9000A1F32C9AF2CF14BE88E10FB6F89480937A
:102CA0006000109260000FBE80E885BF85BFE1E63E
:102CB000F0E0808310828FEF8AB98BB910BA11BA15
:102CC00080E184B985B911B871988DB18B608DB9E7
:102CD00008950E94851900D088E092E0ADB7BEB794
:102CE00012969C938E9311970E94A92289E292E0FA
:102CF000EDB7FEB7928381830E94A9228FEF9BE7F5
:102D0000A2E981509040A040E1F700C000000F9080
:102D10000F900E94851908958630910510F421E0E6
:102D20002BB99C01265030402530310510F423E0AA
:102D30002BB99C012B5030402530310510F427E091
:102D40002BB99C01205130402530310510F42FE083
:102D50002BB99C01255130402530310510F42FE16D
:102D60002BB99C012A5130402530310510F42FE356
:102D70002BB99C012F5130402530310518F48FE7D5
:102D80008BB908958432910510F08FEF8BB90895B7
:102D90002F923F924F925F926F927F928F929F926B
:102DA000AF92BF92CF92DF92EF92FF920F931F9359
:102DB000DF93CF93CDB7DEB7C055D0400FB6F894B0
:102DC000DEBF0FBECDBF5AE0452E512C4FEF242E53
:102DD00043E0342E5E010894A11CB11C80917C005C
:102DE000807E80937C0080917A00806480937A005A
:102DF00080917A0086FDFCCF4AE080E090E020914F
:102E00007A00206420937A0020917A0026FDFCCF7E
:102E10002091780030917900820F931F415079F70B
:102E2000B2010E9422226B01962F80E0B1010E9424
:102E300022227B01CB010E948C168DB79EB70A9788
:102E40000FB6F8949EBF0FBE8DBF0DB71EB70F5FB4
:102E50001F4FEDB7FEB7B282A1828AE492E0F8017B
:102E600093838283E482F582B60180E090E00E9441
:102E7000A11F2AE939E94CEC52E40E94711E20E0BE
:102E800030E040E853E40E94771D3B014C01C7014C
:102E9000B701660F771F23E0880F991F2A95E1F786
:102EA000680F791F80E090E00E94A11F9B01AC0198
:102EB000C401B3010E94461D0E94A31BF801778341
:102EC00066838FED90E0918780870E94BB22EDB7EB
:102ED000FEB73A960FB6F894FEBF0FBEEDBF8091D5
:102EE000340990913509B5010E94750880E060E0D1
:102EF00040E022E330E00E944A1570CFCF93DF9389
:102F0000EC0180E060E00E94F61800D083E592E0DA
:102F1000EDB7FEB7928381830E94A9220F900F9094
:102F200080E062E00E94F61800D000D08FE592E0C9
:102F3000EDB7FEB792838183D483C3830E94A92215
:102F40000F900F900F900F90DF91CF910895EF9217
:102F5000FF920F931F93DF93CF930F92CDB7DEB7FE
:102F60008E010F5F1F4F63E7E62E62E0F62E809121
:102F700034099091350960E070E0A8010E942808AA
:102F80002981222319F40E947E1709C000D0EDB7D1
:102F9000FEB7F282E1820E94A9220F900F9080E09A
:102FA00060E043E020E030E00E944A15E0CF80EC92
:102FB00080937C0087E880937A0080917A00806417
:102FC00080937A0080917A0086FDFCCF8091780012
:102FD0009091790008950E942A188AE892E09093CF
:102FE000490D8093480D80E066E048E00E946F182C
:102FF00080E060E00E94BC190E94851984E00E9474
:10300000DD19089582E084BD85E085BD16BC8DE4A0
:1030100087BDA99AEEE6F0E0808182608083089502
:103020000E944B160E94EB170E94D7170E94691648
:103030000E9402180E94DD1181E296E160E070E0DA
:1030400045E35DE02AE00E94F5100E94A50280E0C1
:1030500090E00895719811B808957198709A739AD4
:1030600011B811B8719A719A719A0799FECF719837
:1030700008950E942D187398709A11B811B8719A1A
:10308000719A719A80B171980895DF93CF9300D0AF
:10309000CDB7DEB76A8389830E942D1889816A8142
:1030A000813011F4739A01C0739870988FEF81B9D1
:1030B00062B9719A719A719A71980F900F90CF912D
:1030C000DF9108951F93982F162F81E0692F0E949A
:1030D000451880E0612F0E9445181F9108951F93A5
:1030E000DF93CF930F92CDB7DEB7162F90E1909379
:1030F000370D823030F092E19093370D41E018E0C7
:1031000008C0693008F061C0413108F05EC0882312
:1031100031F09091370D91609093370D02C048E0E7
:1031200016E08093360D10933A0D40933B0D1093AB
:103130003C0D40933D0D80EC8093380D80E28093F0
:10314000390D1092430D1092420D612F80EC90E0EA
:1031500070E00E943622E62F9C01F62F60933E0D10
:10316000642F80E290E070E00E94362260933F0D71
:10317000E093400D6093410D2115310519F0FF5F7B
:10318000F093400D8091400D80FF03C08F5F8093CE
:10319000400D80E06091370D49830E946218612FD5
:1031A0006150498141504295407F640F81E00E9407
:1031B00062186091400D615082E00E94621883E0C5
:1031C0006FE10E94621881E001C080E00F90CF9112
:1031D000DF911F91089588E06091420D0E9462186E
:1031E0006091430D89E00E9462180895EF92FF926A
:1031F000CF93DF938093440D6093450DC091420DB2
:10320000D091430DC80FD11D8091400D689FB00132
:103210001124C60FD71F8AE07E016C2F0E9462180E
:103220008BE06F2D0E946218DF91CF91FF90EF909D
:103230000895FF920F931F930091440D6091450DE7
:103240006F5F6093450D80E00E94F618F090400D8E
:1032500081E06CE00E94451810E005C080E060E26B
:103260000E9445181F5F1F15C8F3802F6091450D00
:103270000E94F6188091450D90913F0D891789F4B1
:1032800081508093450D2091400D8091420D909189
:10329000430D820F911D9093430D8093420D0E9428
:1032A000EB181F910F91FF9008951F93182F8A30EC
:1032B00019F40E94191925C08D3031F480E0609115
:1032C000450D0E94F6181DC090913E0D8091440D51
:1032D000981721F41092440D0E9419198091440D01
:1032E0006091450D0E94F61881E06CE00E9445183F
:1032F00080E0612F0E9445188091440D8F5F80937C
:10330000440D80E090E01F910895FF920F931F936A
:10331000CF93DF931092430D1092420D0E94EB1851
:1033200080E060E00E94F6188091370D81FF02C0B6
:10333000FF2402C080E2F82E0091410D8091400DE3
:10334000089F8001112481E06CE00E944518C0E0D4
:10335000D0E005C080E06F2D0E9445182196C0176F
:10336000D107C0F380E060E00E94F618DF91CF91B2
:103370001F910F91FF9008959091370D91FD19C005
:1033800020913D0D2617B8F0662309F4622F880FAF
:10339000880F8C70937F892B8093370D615084E068
:1033A0000E94621880E06091370D0E94621881E0EF
:1033B000089580E0089580E008959091370D937D01
:1033C0009093370D843019F490629093370D80E01C
:1033D0006091370D0E9462180895EF92FF920F934B
:1033E0001F93DF93CF930F92CDB7DEB77C018B0194
:1033F000000F111F060F171F53E0000F111F5A95E2
:10340000E1F733E0969587953A95E1F7080F191F94
:10341000213031F48091420D9091430D080F191F16
:103420008AE0602F49830E9462188BE0612F0E941E
:1034300062184981442311F48EE001C08FE06E2DA3
:1034400067700E9462180F90CF91DF911F910F91CA
:10345000FF90EF9008952F923F924F925F926F925C
:103460007F928F929F92AF92BF92CF92DF92EF9214
:10347000FF920F931F93DF93CF9300D000D0CDB76F
:10348000DEB75C016B012A013901802E9E2C9A0166
:10349000281B390B3C832B8337FF05C030952195C2
:1034A0003F4F3C832B83A414B50428F481E090E0C3
:1034B0009A83898304C0EFEFFFEFFA83E9837301F6
:1034C000EC18FD08F7FE04C0F094E194F108F394C1
:1034D000F094E194F108F394C614D70420F4A1E029
:1034E0002A2E312C03C022242A94322C0B811C81D9
:1034F0000E0D1F1DC501B601482D292D0E94ED1985
:10350000A414B50419F4C614D704B1F0C801880F87
:10351000991FE816F90634F40E0D1F1D29813A8112
:10352000A20EB31EEB81FC818E179F071CF70E0FB6
:103530001F1FC20CD31CDECF0F900F900F900F9067
:10354000CF91DF911F910F91FF90EF90DF90CF907F
:10355000BF90AF909F908F907F906F905F904F90B3
:103560003F902F9008952F923F924F925F926F92CB
:103570007F928F929F92AF92BF92CF92DF92EF9203
:10358000FF920F931F93DF93CF93CDB7DEB72897AA
:103590000FB6F894DEBF0FBECDBF4C013B015E837A
:1035A0004D83C02EDE2C7901449F9001459F300D44
:1035B000549F300D11243A832983EE9CA001EF9C87
:1035C000500DFE9C500D11245C834B83C701880F66
:1035D000991F0197B901869F9001879F300D969F93
:1035E000300D11245A01A21AB30A00E010E01801AC
:1035F000280C391CC701860D971D98878F83C10140
:103600006F8178854D2D2C2D0E94ED192401401AD3
:10361000510AC2016F8178854D2D2C2D0E94ED1924
:10362000F301EE19FF09F887EF83C201BF014D2DA9
:103630002C2D0E94ED19C1016F8178854D2D2C2D07
:103640000E94ED19A501440F551FC801880F991F4D
:1036500001966B817C81869F9001879F300D969F9C
:10366000300D1124421753077CF40F5F1F4FC80120
:10367000880F991F0196869F9001879F300D969F16
:10368000300D1124A20EB31E882799278E199F0989
:10369000880F991F0196E981FA818E9F90018F9F73
:1036A000300D9E9F300D1124241735079CF408948B
:1036B000E108F108882799278E199F09880F991F1B
:1036C00001968E9F90018F9F300D9E9F300D11248B
:1036D000A20EB31EF7FE8BCF7801E094F094E80CB5
:1036E000F91C13C00F5F1F4FC801880D991DB3014E
:1036F0004D2D2C2D0E94ED19C701B3014D2D2C2D00
:103700000E94ED190894E108F1082D813E8102170D
:10371000130740F328960FB6F894DEBF0FBECDBF57
:10372000CF91DF911F910F91FF90EF90DF90CF909D
:10373000BF90AF909F908F907F906F905F904F90D1
:103740003F902F900895EF92FF920F931F937B016C
:103750008C0120E030E040E05FE40E941F1F87FD05
:1037600011C0C801B70120E030E040E05FE40E94F2
:10377000461D0E944F1F9B01AC012050304040402D
:10378000504806C0C801B7010E944F1F9B01AC0101
:10379000B901CA011F910F91FF90EF900895A0E029
:1037A000B0E0E5EDFBE10C946F22FC01EA018081C1
:1037B000823008F438C1DB019C91923008F430C1AA
:1037C000843059F4943009F02EC1918111968C9176
:1037D0001197981709F021C126C1943009F420C12E
:1037E0009230B1F4823009F01EC1CA01AF0128E065
:1037F000DA010D90AD01DC010D92CD012150C1F730
:10380000DB0111968C9111979181892389830AC1DB
:10381000823009F405C1C280D380DB0112966D901D
:103820007C90139724813581468157811496ED90C1
:10383000FD900D911C911797C601861997095C019F
:1038400097FF04C0AA24BB24A81AB90AB0E2AB1699
:10385000B1040CF061C0181619066CF53701480167
:103860000A2C04C096948794779467940A94D2F7AC
:1038700081E090E0A0E0B0E00A2C04C0880F991F1E
:10388000AA1FBB1F0A94D2F70197A109B1098E2183
:103890009F21A023B123EE24FF248701E394009706
:1038A000A105B10519F4EE24FF248701E628F728C5
:1038B000082919293CC00097D1F1CA0CDB1C390139
:1038C0004A010A2C04C096948794779467940A94CA
:1038D000D2F781E090E0A0E0B0E00A2C04C0880FAD
:1038E000991FAA1FBB1F0A94D2F70197A109B1091A
:1038F00082239323A423B52321E030E040E050E06D
:103900000097A105B10519F420E030E0A9012629AE
:103910003729482959290BC06C147D0424F4EE245E
:10392000FF24870104C0630120E030E0A901818108
:10393000FB019181891709F445C0882349F0D8011A
:10394000C701821B930BA40BB50B9C01AD0104C0F6
:103950002E193F09400B510B57FD04C01982DB8221
:10396000CA820BC081E08983DB82CA825095409570
:10397000309521953F4F4F4F5F4F2C833D834E83B2
:103980005F830DC0880F991FAA1FBB1F8C839D8367
:10399000AE83BF838A819B8101979B838A838C81BD
:1039A0009D81AE81BF819C01AD01215030404040DE
:1039B00050402F3FEFEF3E07EFEF4E07EFE35E077C
:1039C00008F30BC08983DB82CA822E0D3F1D401F86
:1039D000511F2C833D834E835F8383E088832C813A
:1039E0003D814E815F8157FF1DC0DA01C9018170A1
:1039F0009070A070B0705695479537952795822B9B
:103A0000932BA42BB52B8C839D83AE83BF838A819C
:103A10009B8101969B838A8305C0E8E9F2E003C09D
:103A2000FB0101C0FE01CF01CDB7DEB7EEE00C9483
:103A30008B22A0E2B0E0EFE1FDE10C9477226983F4
:103A40007A838B839C832D833E834F83588789E0C1
:103A5000E82EF12CEC0EFD1ECE010196B7010E945E
:103A600041218E010F5E1F4FCE010596B8010E94C5
:103A70004121C701B801AE01475E5F4F0E94CF1BD5
:103A80000E947320A096E6E00C949322A0E2B0E09E
:103A9000ECE4FDE10C94772269837A838B839C8329
:103AA0002D833E834F8358878E01075F1F4FCE01C2
:103AB0000196B8010E94412191E1E92EF12CEC0E12
:103AC000FD1ECE010596B7010E9441218A8991E031
:103AD00089278A8BC801B701AE01475E5F4F0E94FC
:103AE000CF1B0E947320A096E6E00C949322A0E2E4
:103AF000B0E0EDE7FDE10C946B2269837A838B8360
:103B00009C832D833E834F835887CE010196BE014F
:103B1000675F7F4F0E944121CE010596BE016F5E17
:103B20007F4F0E9441219985923078F089898230B7
:103B3000C0F0943019F4823041F4CBC0843019F4D1
:103B4000923079F4C6C0923051F481E02A859A8986
:103B5000291709F480E08A87CE010996BCC082301B
:103B600051F481E02A859A89291709F480E08A8B2B
:103B7000CE014196B0C06D847E848F849888ED8894
:103B8000FE880F89188DE0E2F0E080E090E0DC0133
:103B9000AA24BB24650120E030E0A901B3016170D3
:103BA000707061157105D1F02E0D3F1D401F511F22
:103BB00015012601280E391E4A1E5B1E81E090E089
:103BC000A0E0B0E02E153F054007510718F080E057
:103BD00090E0DC01820D931DA41DB51DAA0CBB1C39
:103BE000CC1CDD1C17FF09C061E0262E312C412CB6
:103BF000512CA228B328C428D528319749F0EE0CBF
:103C0000FF1C001F111F9694879477946794C6CF6A
:103C10006B897C89EB85FC856E0F7F1F6E5F7F4F04
:103C20007C8F6B8F61E0EA857A89E71709F460E0A1
:103C30006A8F6B8D7C8D10C0FC01E170F070309745
:103C400029F056954795379527955068B695A795CD
:103C5000979587956F5F7F4FB7FDEECF0CC0880FAC
:103C6000991FAA1FBB1F57FD8160220F331F441FDE
:103C7000551F615070408030E0E09E07E0E0AE07E5
:103C8000E0E4BE0760F36B8F7C8F6FE7E62EF12CCC
:103C9000012D112DE822F9220A231B2360E4E616E8
:103CA000F1040105110561F487FD0AC021153105F4
:103CB0004105510529F0805C9F4FAF4FBF4F807881
:103CC0008D8F9E8FAF8FB8A383E0898FCE014996E9
:103CD00002C088E992E00E947320A096E2E10C9471
:103CE0008722A8E1B0E0E7E7FEE10C947322698344
:103CF0007A838B839C832D833E834F8358878E01E9
:103D0000075F1F4FCE010196B8010E94412181E15A
:103D1000E82EF12CEC0EFD1ECE010596B7010E9497
:103D200041219985923008F483C08989823008F452
:103D30007BC02A853A8923272A87943011F0923054
:103D400021F4981709F06CC071C0843039F41D86D5
:103D50001E861F86188A1C861B866AC0823019F44C
:103D600084E0898765C08B859C852B893C89821B73
:103D7000930B9C878B872D853E854F855889ED88D1
:103D8000FE880F89188D2E153F054007510738F41E
:103D9000220F331F441F551F01979C878B876FE1AC
:103DA00070E0A12CB12CC12CA0E4DA2E80E090E0D0
:103DB000DC012E153F054007510740F08A299B2959
:103DC000AC29BD292E193F09400B510BD694C7943D
:103DD000B794A794220F331F441F551F61507040A2
:103DE00041F76FE7E62EF12C012D112DE822F92283
:103DF0000A231B2360E4E616F1040105110561F4B2
:103E000087FD0AC0211531054105510529F0805C67
:103E10009F4FAF4FBF4F80788D879E87AF87B88BFE
:103E20008E01075F1F4F04C0870102C008E912E03E
:103E3000C8010E9473206896EAE00C948F22A8E1E2
:103E4000B0E0E5E2FFE10C94772269837A838B830B
:103E50009C832D833E834F8358878E01075F1F4FBE
:103E6000CE010196B8010E94412181E1E82EF12C9A
:103E7000EC0EFD1ECE010596B7010E9441218985F9
:103E8000823040F08989823028F0C801B7010E9451
:103E9000AA2101C08FEF6896E6E00C949322ACE073
:103EA000B0E0E5E5FFE10C947B2269837A838B83A4
:103EB0009C83CE010196BE016B5F7F4F0E94412122
:103EC0008D81823081F1823070F1843021F48E81D5
:103ED000882369F10AC02F81388537FD24C06E819F
:103EE0002F3131053CF0662311F120E030E040E055
:103EF00050E821C08EE190E0821B930B29853A8522
:103F00004B855C8504C056954795379527958A95CE
:103F1000D2F7662381F050954095309521953F4F1B
:103F20004F4F5F4F08C020E030E0A90104C02FEFE1
:103F30003FEF4FEF5FE7B901CA012C96E2E00C9426
:103F40009722A8E0B0E0E7EAFFE10C9475227B013C
:103F50008C011A82611571058105910519F482E0C1
:103F600089835FC083E089838EE1C82ED12CDC82F7
:103F7000CB82ED82FE820F831887C801B7010E94B1
:103F80001920FC013197F7FF3AC0AA27BB27AE1BC7
:103F9000BF0B21E030E040E050E00A2E04C0220FC9
:103FA000331F441F551F0A94D2F721503040404020
:103FB00050402E213F214023512361E070E080E0FA
:103FC00090E0211531054105510519F460E070E0DC
:103FD000CB0104C016950795F794E794AA95D2F7FC
:103FE000E62AF72A082B192BED82FE820F83188709
:103FF0008EE190E08E1B9F0B9C838B8312C03097C9
:1040000081F00E2E04C0EE0CFF1C001F111F0A943D
:10401000D2F7ED82FE820F831887CE1ADF0ADC8288
:10402000CB82CE0101960E9473202896E8E00C9482
:104030009122AF92BF92CF92DF92EF92FF920F93B5
:104040001F937B018C0180E0E81680E0F80681E098
:10405000080780E0180758F4EFEFEE16F1040105A9
:10406000110509F090F480E090E0DC0117C0F0E069
:10407000EF16F0E0FF06F0E00F07F1E01F0750F445
:1040800080E190E0A0E0B0E009C088E090E0A0E02E
:10409000B0E004C088E190E0A0E0B0E020E230E0D1
:1040A00040E050E0281B390B4A0B5B0B57016801BD
:1040B00004C0D694C794B794A7948A95D2F7D60132
:1040C000C50180569D4FFC018081281B31094109A3
:1040D0005109C9011F910F91FF90EF90DF90CF9090
:1040E000BF90AF900895EF92FF920F931F93CF93DD
:1040F000DF93FC0124813581468157816181808174
:10410000823020F44061EFEFF0E0A3C0843009F486
:104110009BC0823009F492C021153105410551053B
:1041200009F48FC00280F381E02D8FEFE238F807A9
:104130000CF05AC0C2E8DFEFCE1BDF0BCA31D1054D
:104140006CF579018A010C2E04C016950795F79439
:10415000E7940A94D2F781E090E0A0E0B0E00C2E62
:1041600004C0880F991FAA1FBB1F0A94D2F701979A
:10417000A109B10982239323A423B52321E030E0D0
:1041800040E050E00097A105B10519F420E030E0CF
:10419000A9012E293F29402B512B03C020E030E0FC
:1041A000A901DA01C9018F779070A070B0708034D6
:1041B0009105A105B10539F427FF09C0205C3F4FE7
:1041C0004F4F5F4F04C0215C3F4F4F4F5F4FE1E0C7
:1041D000F0E0203080E0380780E0480780E45807AE
:1041E00028F5E0E0F0E022C0E038F1056CF5E15898
:1041F000FF4FDA01C9018F779070A070B0708034E2
:104200009105A105B10539F427FF09C0205C3F4F96
:104210004F4F5F4F04C0215C3F4F4F4F5F4F57FFE1
:1042200005C05695479537952795319687E0569561
:104230004795379527958A95D1F70BC0E0E0F0E0D8
:1042400005C0E0E0F0E005C0EFEFF0E020E030E096
:10425000A9018E2F879588278795942F9F7767953B
:1042600066276795E695E22EA92FA82BFE2FF62B41
:10427000622F732F8A2F9F2FCDB7DEB7E6E00C9405
:104280009322DC01FB012C9111963C91119712961F
:104290008C911297482F4F7750E0982F991F9927AC
:1042A000991F13966C911397862F880F892B90E096
:1042B000661F6627661F6183009739F52115310552
:1042C0004105510511F482E029C082E89FEF9383F4
:1042D000828367E0220F331F441F551F6A95D1F771
:1042E00083E0808309C0220F331F441F551F828142
:1042F0009381019793838283203080E0380780E0A8
:10430000480780E4580778F320C08F3F910579F47F
:10431000211531054105510519F484E08083089584
:1043200044FF03C081E0808310C010820EC08F570D
:1043300090409383828383E0808387E0220F331F42
:10434000441F551F8A95D1F75064248335834683D3
:1043500057830895FC01DB019081923008F449C035
:104360008C91823008F445C0943051F461818430DE
:10437000B1F511962C91119730E0261B310941C0FF
:10438000843021F0923041F48230B1F111968C9159
:1043900011978823A1F12DC06181823001F111961E
:1043A0008C9111976817D9F42281338112968D91DF
:1043B0009C9113978217930794F028173907BCF044
:1043C000248135814681578114968D919D910D9060
:1043D000BC91A02D82179307A407B50718F4662394
:1043E00041F00DC0281739074A075B0728F46623F8
:1043F00031F021E030E005C020E030E002C02FEFD6
:104400003FEFC9010895629FD001739FF001829F21
:10441000E00DF11D649FE00DF11D929FF00D839F53
:10442000F00D749FF00D659FF00D9927729FB00DF0
:10443000E11DF91F639FB00DE11DF91FBD01CF0103
:1044400011240895AA1BBB1B51E107C0AA1FBB1F63
:10445000A617B70710F0A61BB70B881F991F5A9510
:10446000A9F780959095BC01CD01089597FB092E81
:1044700007260AD077FD04D0E5DF06D000201AF425
:10448000709561957F4F0895F6F7909581959F4FB0
:104490000895A1E21A2EAA1BBB1BFD010DC0AA1F85
:1044A000BB1FEE1FFF1FA217B307E407F50720F09D
:1044B000A21BB30BE40BF50B661F771F881F991F18
:1044C0001A9469F760957095809590959B01AC0161
:1044D000BD01CF0108952F923F924F925F926F924C
:1044E0007F928F929F92AF92BF92CF92DF92EF9284
:1044F000FF920F931F93CF93DF93CDB7DEB7CA1B05
:10450000DB0B0FB6F894DEBF0FBECDBF09942A882F
:10451000398848885F846E847D848C849B84AA84D7
:10452000B984C884DF80EE80FD800C811B81AA8164
:10453000B981CE0FD11D0FB6F894DEBF0FBECDBF2F
:10454000ED010895DC0101C06D9341505040E0F74A
:104550000895DF93CF93CDB7DEB7FE013596619115
:1045600071918091480D9091490DAF010E94EB220D
:10457000CF91DF9108950F931F93DF93CF93CDB722
:10458000DEB72E970FB6F894DEBF0FBECDBF0D89F4
:104590001E8986E08C831A8309838FEF9FE79E83B1
:1045A0008D839E01275E3F4FCE0101966F89788DE6
:1045B000A9010E94EB22EF81F885E00FF11F108224
:1045C0002E960FB6F894DEBF0FBECDBFCF91DF9110
:1045D0001F910F9108952F923F924F925F926F9289
:1045E0007F928F929F92AF92BF92CF92DF92EF9283
:1045F000FF920F931F93DF93CF93CDB7DEB72C9726
:104600000FB6F894DEBF0FBECDBF6C011B018A014F
:10461000FC0117821682838181FFD1C12E0108948B
:10462000411C511CF6019381F10193FD859193FF8B
:1046300081911F01882309F4BEC1853239F493FDAD
:10464000859193FF81911F01853229F490E0B60195
:104650000E941125E7CFEE24FF2420E02032B0F4A1
:104660008B3269F08C3228F4803251F0833271F44D
:104670000BC08D3239F0803349F421602CC02260A8
:10468000246029C0286027C0206125C027FD2CC0D8
:10469000382F30533A3098F426FF08C08E2D880FFB
:1046A000E82EEE0CEE0CE80EE30E15C08F2D880FF1
:1046B000F82EFF0CFF0CF80EF30E20620CC08E32A9
:1046C00021F426FD78C1206406C08C3611F42068E0
:1046D00002C0883649F4F10193FD859193FF8191E1
:1046E0001F01882309F0BACF982F9554933018F002
:1046F0009052933028F40C5F1F4FFFE3F9830DC0F5
:10470000833631F0833771F0833509F060C022C001
:10471000F801808189830E5F1F4F420171E0A72E4F
:10472000B12C16C062E0662E712C600E711EF8016D
:104730008080918026FF03C06E2D70E002C06FEF75
:104740007FEFC4012C870E9406255C0183012C8524
:104750002F7717C052E0652E712C600E711EF80184
:104760008080918026FF03C06E2D70E002C06FEF45
:104770007FEFC4012C870E94FB245C012C852068FC
:10478000830123FD20C008C080E290E0B6012C87A1
:104790000E941125FA942C858F2D90E0A816B90659
:1047A00098F311C0F40127FD859127FF81914F01F6
:1047B00090E0B6012C870E9411252C85F110FA9407
:1047C0000894A108B108A114B10461F7F1C08436BE
:1047D00011F0893649F527FF08C0F8016081718121
:1047E000828193810C5F1F4F09C0F8016081718144
:1047F000882777FD8095982F0E5F1F4F4FE6B42EC8
:10480000B22297FF09C090958095709561957F4F72
:104810008F4F9F4FF0E8BF2AA2012AE030E00E94AC
:104820003D25782E741845C0853731F43FEEB32E00
:10483000B2222AE030E025C099EFB92EB2228F369D
:10484000C1F0803720F4883509F0B5C00DC080373D
:1048500021F0883709F0AFC002C020E1B22AB4FECF
:104860000BC084E0B82A08C0B4FE09C0E6E0BE2A46
:1048700006C028E030E005C020E130E002C020E1C1
:1048800032E0B7FE08C0F8016081718182819381B6
:104890000C5F1F4F07C0F8016081718180E090E0DC
:1048A0000E5F1F4FA2010E943D25782E7418FFE76E
:1048B000BF22B6FE0BC02EEFB2227E1438F4B4FE37
:1048C00007C0B2FC05C08FEEB82202C0A72C01C001
:1048D000AE2C8B2D90E0B4FE0DC0FE01E70DF11D56
:1048E0002081203319F4E9EEBE2209C0A394B2FE60
:1048F00006C004C086789070009709F0A3948B2CB2
:104900009924B3FC14C0B0FE0FC0AF1428F4E72CF8
:10491000EF0CEA18AF2C08C0E72C06C080E290E04C
:10492000B6010E941125A394AF14C0F304C0AF14C4
:1049300010F4FA1801C0FF2484FE0FC080E390E059
:10494000B6010E94112582FE1FC081FE03C088E5CA
:1049500090E010C088E790E00DC0C40186789070A8
:10496000009791F081FC02C080E201C08BE2B7FCAD
:104970008DE290E0B6010E94112506C080E390E030
:10498000B6010E941125EA947E14C0F37A94F201D4
:10499000E70DF11D808190E0B6010E94112577207E
:1049A000A9F706C080E290E0B6010E941125FA94B2
:1049B000FF20C1F737CEF6012681378102C02FEFE5
:1049C0003FEFC9012C960FB6F894DEBF0FBECDBFE6
:1049D000CF91DF911F910F91FF90EF90DF90CF90DB
:1049E000BF90AF909F908F907F906F905F904F900F
:1049F0003F902F900895FC01059061507040011088
:104A0000D8F7809590958E0F9F1F0895FC016150F7
:104A1000704001900110D8F7809590958E0F9F1FE0
:104A200008950F931F93CF93DF938C01EB018B813C
:104A300081FF1BC082FF0DC02E813F818C819D8133
:104A40002817390764F4E881F9810193F983E88331
:104A500006C0E885F985802F0995009731F48E818D
:104A60009F8101969F838E8302C00FEF1FEFC801C5
:104A7000DF91CF911F910F910895FA01AA27283055
:104A800051F1203181F1E8946F936E7F6E5F7F4F1B
:104A90008F4F9F4FAF4FB1E03ED0B4E03CD0670F97
:104AA000781F891F9A1FA11D680F791F8A1F911DEA
:104AB000A11D6A0F711D811D911DA11D20D009F43A
:104AC00068943F912AE0269F11243019305D31937C
:104AD000DEF6CF010895462F4770405D4193B3E065
:104AE0000FD0C9F7F6CF462F4F70405D4A3318F00C
:104AF000495D31FD4052419302D0A9F7EACFB4E0BD
:104B0000A6959795879577956795BA95C9F7009774
:104B10006105710508959B01AC010A2E0694579515
:104B2000479537952795BA95C9F7620F731F841F6C
:0A4B3000951FA01D0895F894FFCF13
:104B3A000102040810204080000001000200010068
:104B4A00030001000200010004000100020001004C
:104B5A00030001000200010005000100020001003B
:104B6A00030001000200010004000100020001002C
:104B7A00030001000200010006000100020001001A
:104B8A00030001000200010004000100020001000C
:104B9A0003000100020001000500010002000100FB
:104BAA0003000100020001000400010002000100EC
:104BBA0003000100020001000700010002000100D9
:104BCA0003000100020001000400010002000100CC
:104BDA0003000100020001000500010002000100BB
:104BEA0003000100020001000400010002000100AC
:104BFA00030001000200010006000100020001009A
:104C0A00030001000200010004000100020001008B
:104C1A00030001000200010005000100020001007A
:104C2A00030001000200010004000100020001006B
:104C3A0003000100020001002A2A2A2A2A2A202027
:104C4A0054656D7065726174757273656E736F7297
:104C5A0020202A2A2A2A2A2A000A0D20204C696E94
:104C6A00676720752E20537465696E6572202D2042
:104C7A00536F536520323031330025642C25642567
:104C8A0063430054656D706572617475723A0025EC
:104C9A0073202020202020202020202020202020B7
:104CAA002020004665686C6572206265692064652B
:104CBA0072204D61696C626F78000000000200008A
:104CCA00000055190000000000000000000000006C
:104CDA000001020203030303040404040404040499
:104CEA00050505050505050505050505050505056A
:104CFA00060606060606060606060606060606064A
:104D0A000606060606060606060606060606060639
:104D1A000707070707070707070707070707070719
:104D2A000707070707070707070707070707070709
:104D3A0007070707070707070707070707070707F9
:104D4A0007070707070707070707070707070707E9
:104D5A0008080808080808080808080808080808C9
:104D6A0008080808080808080808080808080808B9
:104D7A0008080808080808080808080808080808A9
:104D8A000808080808080808080808080808080899
:104D9A000808080808080808080808080808080889
:104DAA000808080808080808080808080808080879
:104DBA000808080808080808080808080808080869
:104DCA000808080808080808080808080808080859
:00000001FF
